:020000040800F2
:10000000980400209D0100080B1200080712000848
:100010000912000823070008ED1600080000000080
:100020000000000000000000000000000F120008A7
:1000300025070008000000000D120008111200083A
:10004000B7010008B7010008B7010008B7010008B0
:10005000B7010008B7010008B7010008B7010008A0
:10006000B7010008B7010008B7010008B701000890
:10007000B7010008B7010008B7010008B701000880
:10008000B7010008B7010008B7010008B701000870
:10009000B7010008B7010008B7010008B701000860
:1000A000B7010008B7010008B7010008B701000850
:1000B000B7010008B7010008B7010008B701000840
:1000C000B7010008B7010008B7010008B701000830
:1000D000B7010008B7010008AD160008CD160008EA
:1000E000B7010008B7010008B7010008B701000810
:1000F000B7010008B7010008B7010008B701000800
:10010000B7010008B7010008B7010008B7010008EF
:10011000B7010008B7010008B7010008B7010008DF
:10012000B7010008B7010008B7010008B7010008CF
:10013000B7010008B7010008B7010008B7010008BF
:10014000B7010008B7010008B7010008B7010008AF
:10015000B7010008B7010008B7010008B70100089F
:10016000B7010008B7010008B7010008B70100088F
:10017000B7010008B7010008B7010008000000003F
:10018000B7010008B7010008DFF80CD000F048FA0A
:1001900000480047112000089804002006488047C6
:1001A00006480047FEE7FEE7FEE7FEE7FEE7FEE75C
:1001B000FEE7FEE7FEE7FEE785120008890100087A
:1001C0002DE9F05F0546002092469B46884606468C
:1001D000814640241BE0284641464746224600F01F
:1001E00057F853465A46C01A914110D31146184643
:1001F000224600F03EF82D1A67EB01084F462246D2
:100200000120002100F035F817EB00094E41201EB7
:10021000A4F10104DFDC484631462A464346BDE8E6
:10022000F09FD2B201E000F8012B491EFBD27047CB
:100230000022F6E710B513460A4604461946FFF7B2
:10024000F0FF204610BD30B50B46014600202022AD
:10025000012409E021FA02F59D4205D303FA02F5D3
:10026000491B04FA02F52844151EA2F10102F1DC33
:1002700030BD202A04DB203A00FA02F1002070474A
:100280009140C2F1200320FA03F3194390407047D4
:10029000202A04DB203A21FA02F00021704721FADB
:1002A00002F3D040C2F12002914008431946704742
:1002B0002DE9FE4F804681EA0300C00F0C460090F6
:1002C00021F0004123F00045B8EB0200A94105D21E
:1002D0004046214690461C460B46024623F000400D
:1002E000104347D0270DC7F30A00C3F30A51029009
:1002F000401A019040286BDAC3F3130040F4801BCE
:100300000098924620B10023D2EB030A63EB0B0B5B
:1003100001985946C0F140025046FFF7AAFF064631
:100320000D4650465946019A00F08CF910EB080032
:100330006141002487EA115284EAE7731A4340D0EE
:10034000009A62B3019A012A4FEA075215DC001B9A
:1003500061EB02014FF0004202EA0752CDE9004290
:10036000001C41F5801132462B4600F08CF903B099
:10037000BDE8F08F40462146F9E7001B61EB020122
:10038000001C41F5801300185B412018A2F50017EE
:1003900047EB030140EAD570B6196D4111E06D08D5
:1003A0004FEA360645EAC0754FEA0752001B61EB7B
:1003B0000201001C41F5801149084FEA3000001984
:1003C000514132462B4603B0BDE8F04F00F04CB926
:1003D0000098012240000023D0EB020263EBE0739F
:1003E000009821464FEAE074B8EB000061EB04018D
:1003F000E9E783F000435BE781F0004158E72DE92E
:10040000FE4F81EA030404F0004421F0004100940F
:100410004FF0000B23F0004350EA01045ED052EA93
:1004200003045BD0C3F30A54C1F30A552C44A4F26D
:10043000F3340194A0FB0254C1F3130141F4801181
:10044000C3F3130343F4801301FB024400FB034E88
:10045000840A970A44EA815447EA8357A4FB076851
:1004600002958D0A05FB07854FEA932C04FB0C547B
:100470002705029D4FEA065847EA1637B5EB0805EF
:100480006EEB070C870E920E47EA811742EA831241
:10049000A7FB0201B6EB0B0164EB00042B0D43EA52
:1004A0000C335E1844EB1C50DA465146E7FB020160
:1004B000C5F313044FEA0B3343EA14534FEA0432F3
:1004C000019C43EA0603A4F10C040294009CCDE9CC
:1004D00000B400F0D8F803B0BDE8F08F002001466A
:1004E000F9E72DE9F04D81EA030404F0004B21F017
:1004F000004514464FF0000A23F0004150EA05027F
:1005000020D054EA01021DD0C5F30A570246C5F3B4
:100510001303C1F31300C1F30A5640F4801543F4EA
:100520008013A7EB0608101BD64608F2FD3873EBC4
:10053000050002D308F1010801E092185B41B8F10F
:10054000000F03DA00200146BDE8F08D00204FF4D3
:100550008011064684460EE0171B73EB050705D392
:10056000121B63EB050306434CEA010C49084FEAF2
:10057000300092185B4150EA0107EDD152EA0300C6
:1005800012D082EA040083EA0501084305D0101B5B
:10059000AB4106D20122002306E000224FF00043C7
:1005A00002E06FF0010253101AEB06004CEB085109
:1005B00010EB0A0041EB0B01BDE8F04D00F054B820
:1005C000C1F30A52C1F3130140F2FF3341F4801129
:1005D0009A4202DA00200146704740F233439A42C1
:1005E000A2F2334202DC5242FFF752BEFFF741BE95
:1005F00030B5041E71F1000404DB4FF000444042AA
:1006000064EB0101141E73F1000405DB1C464FF07E
:100610000043524263EB0403994208BF904230BD4D
:10062000064C074D06E0E06840F0010394E807003F
:1006300098471034AC42F6D3FFF7AAFD9C2100087E
:10064000BC210008202A06DBCB17203A41FA02F031
:1006500043EAE07306E041FA02F3D040C2F120021F
:10066000914008431946704710B5141E73F10004F9
:1006700008DA401C41F1000192185B411A4301D194
:1006800020F0010010BD2DE9F04D92469B4611B1BE
:10069000B1FA81F202E0B0FA80F220329046FFF720
:1006A000E8FD04460F4640EA0A0041EA0B015346C2
:1006B0005A46084313D0114653EA010019D0C8F135
:1006C00040025046FFF7E4FD05460E4650465946A7
:1006D0004246FFF7CEFD084305D0012004E0204646
:1006E0003946BDE8F08D0020054346EAE0762C430C
:1006F00037430A986305E40AA0EB08000022FD0ACC
:1007000044EA47540A3002D500200146E9E70105D2
:1007100010196941DDE9084500196941BDE8F04D4E
:10072000A2E7FEE7704790F83510022903D0802138
:10073000416501207047052180F835100068016887
:1007400021F00101016000207047000070B50446EF
:1007500000F0E6F80546601C02D004480078044426
:1007600000F0DEF8401BA042FAD370BD0400002068
:100770002DE9F84FDFF87CB100224FF001084FF06F
:10078000030A4FF00F090BF1040E00BF0B6808FAC3
:1007900002F42340A3426ED14D68022D01D0122DE8
:1007A0000ED1D50800EB850CDCF820505607F70E6B
:1007B00009FA07F6B5430E69BE402E43CCF8206017
:1007C000066855000F790AFA05FC07F0030726EAC8
:1007D0000C06AF40374307604E68012E05D0022E4D
:1007E00003D0112E01D0122E0ED18668CF6826EAD2
:1007F0000C06AF40374387604668A6430C79C4F3C4
:100800000014944034434460C6688C6826EA0C06A1
:10081000AC403443C4604C68E40065D5364C256870
:1008200045F480452560246822F0030504F48044E3
:100830000094324C2E19D6F8084895072F0F09FA64
:1008400007F5AC432E4DA84201D1002524E02D4DE3
:10085000A84201D101251FE02B4DA84201D102255C
:100860001AE02A4DA84201D1032515E0284DA842DF
:1008700002D1042510E037E0264DA84201D105251C
:100880000AE0254DA84201D1062505E0234DA842E6
:1008900001D1072500E00825BD402543C6F80858CA
:1008A000DBF800405D464E689C43F60300D51C43D0
:1008B0002C60DEF8004075464E689C43B60300D5B8
:1008C0001C432C600B4D08352C684E689C43F60287
:1008D00000D51C432C60074D0C352C684E689C439A
:1008E000B60200D51C432C60521C102AFFF44EAFF8
:1008F000BDE8F88F003C0140443802400030014020
:10090000000002400004024000080240000C0240C7
:10091000001002400014024000180240001C024077
:100920000148806870470000040000200248816888
:100930000278114481607047040000200B4810B514
:10094000016841F400710160016841F48061016057
:10095000016841F480710160032000F06FF800200D
:1009600000F006F800F024F8002010BD003C024022
:1009700070B50D4D04464FF47A712878B1FBF0F054
:100980000A490968B1FBF0F000F0E2FA48B9102C0E
:1009900007D200222146501E00F030F800206C6083
:1009A00070BD012070BD0000040000201000002078
:1009B0000A4808B5016841F480410160006800F40C
:1009C000804000900548001F016841F0805101609F
:1009D000006800F08050009008BD000044380240DC
:1009E000002809DB00F01F0201219140400980002E
:1009F00000F1E020C0F8001170470000F0B40E4B89
:100A00001B680C46C3F30223C3F10705042D00D96C
:100A10000425191D072901D2002300E0DB1E012651
:100A200006FA05F1491E214099409E40761E164067
:100A30003143F0BC00F06EBE0CED00E0064900F062
:100A4000070208684FF6FF03184040EA0220034AF5
:100A500010430860704700000CED00E00000FA054C
:100A60002DE9F0470E46050065D0DFF81481D8F86F
:100A70000000F7B200F00F00B04207D288F8007013
:100A8000D8F8000000F00F00B04254D128683D4C67
:100A9000810712D5400703D5206840F4E05020605C
:100AA0002878000703D5206840F460402060206863
:100AB000A96820F0F000084320602878C0072DD0F6
:100AC000304968680839012812D0022813D0032859
:100AD00011D00968890700292DDA216821F0030166
:100AE00001432160FFF71CFF814641F2883A0EE086
:100AF00009688903EFE709688901ECE7FFF710FF50
:100B0000A0EB0901514502D90320BDE8F087206818
:100B1000696800F00C00B0EB810FEFD1D8F800103D
:100B2000404601F00F01B14207D90770006800F09C
:100B30000F00B04201D00120E7E72878400705D533
:100B40002068E96820F4E050084320602878000716
:100B500006D52068296920F4604040EAC100206081
:100B600000F036F82168084AC1F30311515CC8400F
:100B7000064908600020FFF7FBFE0020C5E70000E3
:100B8000003C024008380240842100081000002088
:100B90000448054900680968044AC1F38221515C90
:100BA000C840704710000020083802409421000817
:100BB0000448054900680968044AC1F34231515CA0
:100BC000C8407047100000200838024094210008F7
:100BD000154810B5006810F00C02144813D01449E1
:100BE000042A0FD0082A0ED10F4C241F2268236834
:100BF00002F03F025B0207D52068C0F38810A0FB1B
:100C0000010106E0084610BD2168C1F38811A1FB6F
:100C100000010023FFF7D4FA2168C1F30141491C08
:100C20004900B0FBF1F010BD083802400024F40088
:100C300040787D012DE9F84F050076D02878DFF85F
:100C4000F8B2BE4CC00749D0DBF800105846C1F3DB
:100C50008101012908D00068C0F3810002280AD16F
:100C6000201D0068400206D52068800336D56868DC
:100C70000028E2D032E06868B0F5803F10D0B0F5CF
:100C8000A02F206810D020F480302060206820F44D
:100C9000802020606868A0B1FFF742FE06460CE0A5
:100CA000206840F48030F4E740F480202060F7E7CB
:100CB000FFF736FE801B642873D820688003F7D5C1
:100CC0000CE0FFF72DFE064605E000BFFFF728FE0B
:100CD000801B6428F0D820688003F7D42878DFF8D8
:100CE000608280074FF000093ED5DBF800105846BF
:100CF00011F00C0F09D00068C0F3810002280BD15D
:100D00008D48001F0068400206D42068800715D572
:100D1000E868012809D111E0E868B8B10120C8F8F5
:100D20000000FFF7FDFD064605E002E1FFF7F8FDD4
:100D3000801B0228C0D820688007F7D52068296961
:100D400020F0F80040EAC10020600DE0C8F80090F3
:100D5000FFF7E6FD064604E0FFF7E2FD801B0228F0
:100D60001FD820688007F7D42878000722D5724E54
:100D7000744869696C3671B101210160FFF7D0FDDB
:100D8000074604E0FFF7CCFDC01B022809D83068F5
:100D90008007F7D50EE0C0F80090FFF7C1FD0746C9
:100DA00005E083E0FFF7BCFDC01B02287ED8306859
:100DB0008007F7D42878400768D5DFF87CA10027A2
:100DC0000AF1380ADAF80000C0000BD4DAF8001093
:100DD00041F08051CAF80010DAF80000012700F055
:100DE00080500090584E3068C00510D4306840F4F0
:100DF00080703060FFF794FD009005E0FFF790FDF4
:100E00000099401A022851D83068C005F6D54A4EDC
:100E1000A868683601280FD00528306810D020F067
:100E200001003060306820F004003060A868B8B17C
:100E3000FFF776FD00900FE0306840F00100F4E726
:100E400040F004003060F7E7FFF76AFD0099411AAF
:100E500041F28830814264D830688007F4D50EE0D2
:100E6000FFF75EFD009007E0FFF75AFD0099411A79
:100E700041F28830814254D830688007F4D42FB1D1
:100E8000DAF8001021F08051CAF80010A869C0B348
:100E9000DBF80010C1F3810102294AD0022848463C
:100EA00007D0C8F86000FFF73BFD00E039E00546D9
:100EB0003AE04746C8F86000FFF732FD064604E016
:100EC000FFF72EFD801B02282BD820688001F7D465
:100ED000D5E907010843A96A1C4A490802EB014108
:100EE0006A6A41EA8211084395F82C1040EA0161D0
:100EF0001148001F016001203866FFF711FD05460B
:100F000005E014E0FFF70CFD401B022809D820681B
:100F10008001F7D50BE000BFFFF702FD401B022860
:100F200002D90320BDE8F88F20688001F4D40020A6
:100F3000F8E70120F6E700000838024000380240D8
:100F400000004742800E4742007000400000FFFF53
:100F500010B5401EB0F1807F01D3012010BD4FF0CD
:100F6000E02460610F21601700F0D4FB0020A06135
:100F700007202061002010BD7047000070B5026896
:100F800004461068D168536910F00F0F50D003F079
:100F9000010501F4907635435DD0C20705D0CA053E
:100FA00003D5E26B42F00102E263420705D5DA079E
:100FB00003D0E26B42F00202E263820705D5DA0752
:100FC00003D0E26B42F00402E263020705D5DA07C0
:100FD00003D0E26B42F00802E263E26B002A33D0F6
:100FE000800604D5880602D5204600F08BF92068DB
:100FF0004069E16BC0F38010090700D428B3204694
:1010000000F072F92068416949061AD5416921F05A
:1010100040014161606BA0B11B490165606BFFF746
:1010200082FB002810D0606B016DBDE8704008475E
:10103000830610D58B060ED52046BDE8704000F023
:1010400061B92046FFF798FF70BD2046FFF794FF77
:101050000020E06370BD030606D50B0604D52046CC
:10106000BDE8704000F0F0BA4006F3D54806F1D56F
:10107000D168204621F04001D160202184F8391048
:1010800000F0C0F870BD0000D912000870B504006F
:1010900004D094F83900002510B106E0012070BD9D
:1010A00084F83850204600F023F8242084F83900D2
:1010B0002068C16821F40051C160204600F06EF93B
:1010C0002068016921F4904101612068416921F0A3
:1010D0002A0141612068C16841F40051C160E563A3
:1010E000202084F8390084F83A00002070BD000008
:1010F000F0B587B0044614216846FFF799F82848F0
:10110000264F26682649103802220123032407258A
:10111000BE421DD10E6846F400360E60096801F427
:1011200000310591016841F00101016000686946E4
:1011300000F0010005900C208DE83D001948FFF7F4
:1011400017FB002211462620FFF758FC262020E03E
:10115000154FBE421FD10E6846F480260E60096806
:1011600001F480210591016841F0020101600068ED
:10117000694600F0020005904FF440608DE83D00A4
:101180000A48FFF7F5FA002211462720FFF736FC40
:101190002720FFF725FC07B0F0BD00000044004009
:1011A0004038024000000240004800400004024075
:1011B00090F83A30202B22D1F9B1F2B190F83830C2
:1011C000012B1CD081628285C2850021C16322224D
:1011D00080F83A2080F838100168CA6842F48072BA
:1011E000CA6001684A6942F001024A610068C16848
:1011F00041F02001C16000207047012070470220AB
:10120000704770477047FEE7FEE7704770477047CA
:10121000FFF78CBB10B592B030216846FFF708F895
:1012200014210CA8FFF704F814480024016841F0C9
:1012300080510160006800F08050119010480168F2
:1012400041F4804101600068069400F480401190F0
:101250000220009001200390102004906846FFF7C0
:10126000E9FC0F20CDE90C040E940F9400210CA88A
:101270001094FFF7F5FB12B010BD0000403802409B
:10128000007000401048016841F4700101600F488F
:10129000016841F0010101600C4A0021083211602F
:1012A00002680B4B1A400260031D0A4A1A6002686A
:1012B00022F48022026005480C3001600249580681
:1012C000803908607047000088ED00E00038024077
:1012D000FFFFF6FE1030002410B5806B0021C185A1
:1012E000C184FFF749FE10BD0168CA6822F49072FC
:1012F000CA6001684A6922F001024A61202180F82F
:101300003A10704710B590F83A10222901D0022007
:1013100010BD8168B1F5805F11D0016900290168B5
:101320001FD0496801F07F03816A4A1C82620B70FA
:10133000C18D491E0904090CC18518D02BE0026932
:10134000816A002A0268526805D0D2B20A80816A96
:10135000491C8162ECE7C2F308020A80816A891C99
:10136000F7E74A68816A4B1C83620A70E0E701680C
:10137000CA6822F02002CA600168CA6822F480723A
:10138000CA6001684A6922F001024A61202180F89E
:101390003A10FFF736FF002010BD00002DE9F041A4
:1013A000044600680169E26821F44051114301617B
:1013B0002169A068E2690843616911432268084312
:1013C000D16849F20C6399430143D16020684169B7
:1013D000A26921F4407111434161E2696425B2F5CB
:1013E000004F9748974922684FF032083FD08A4211
:1013F00001D082427CD1FFF7DBFB00EBC00101EBA7
:10140000001061688900B0FBF1F6FFF7D1FB00EB3B
:10141000C00101EB001061688900B0FBF1F0B0FB86
:10142000F5F06FF01801484306EB800108EB01105E
:10143000B0FBF5F000F0F006FFF7BAFB00EBC001DF
:1014400001EB001061688900B0FBF1F0B0FBF5F032
:1014500006EB0016FFF7ACFB00EBC00101EB001040
:1014600061688900B0FBF1F7FFF7A2FBD2E08A4286
:1014700001D082423DD1FFF79BFB00EBC00101EBA5
:10148000001061684900B0FBF1F0B0FBF5F0060117
:10149000FFF78EFB00EBC00101EB00106168490013
:1014A000B0FBF1F7FFF784FB00EBC00101EB00108C
:1014B00061684900B0FBF1F0B0FBF5F06FF0180186
:1014C000484307EB800108EBC100B0FBF5F000F0EA
:1014D000F80006EB4006FFF76BFB00EBC00101EBE9
:1014E000001061684900B0FBF1F7FFF761FB3CE0D9
:1014F00055E0FFF74DFB00EBC00101EB0010616808
:101500004900B0FBF1F0B0FBF5F00601FFF740FB3E
:1015100000EBC00101EB001061684900B0FBF1F77E
:10152000FFF736FB00EBC00101EB001061684900DA
:10153000B0FBF1F0B0FBF5F06FF01801484307EB9A
:10154000800108EBC100B0FBF5F000F0F80006EBFD
:101550004006FFF71DFB00EBC00101EB00106168C6
:101560004900B0FBF1F7FFF713FB00EBC00101EB03
:10157000001061684900B0FBF1F0B0FBF5F06FF0CE
:101580001801484307EB800108EBC100B0FBF5F000
:1015900000F00700216830448860BDE8F081FFF763
:1015A000F7FA00EBC00101EB001061688900B0FBA5
:1015B000F1F6FFF7EDFA00EBC00101EB00106168F6
:1015C0008900B0FBF1F0B0FBF5F06FF01801484373
:1015D00006EB800108EB0110B0FBF5F000F0F0061F
:1015E000FFF7D6FA00EBC00101EB0010616889003B
:1015F000B0FBF1F0B0FBF5F006EB0016FFF7C8FA10
:1016000000EBC00101EB001061688900B0FBF1F74D
:10161000FFF7BEFA00EBC00101EB00106168890022
:10162000B0FBF1F0B0FBF5F06FF01801484307EBA9
:10163000800108EB0110B0FBF5F000F00F00A9E706
:10164000001401400010014090F83910212901D008
:10165000022070478168B1F5805F016A0BD04A1C97
:101660000262026809785160C18C491E0904090CA4
:10167000C1840ED017E009880268C1F308015160E7
:1016800001690029016A02D0491C0162ECE7891C4A
:10169000FBE70168CA6822F08002CA600068C1687E
:1016A00041F04001C16000207047000010B50548BE
:1016B000FFF764FCBDE81040012203490148FFF731
:1016C00077BD0000140000200000002010B5054880
:1016D000FFF754FCBDE81040012203490148FFF721
:1016E00067BD00005400002001000020FEE700005C
:1016F00037B514460846064B6A46214600F0ECF81A
:1017000004466946002000F07EFC20463EBD0000F5
:10171000072000080907090E002804DB00F1E0207B
:1017200080F80014704700F00F0000F1E02080F80E
:10173000141D704702E008C8121F08C1002AFAD120
:1017400070477047002001E001C1121F002AFBD141
:10175000704700002DE9FF5F82B00021DDE9043011
:10176000020DDDF840B0034318D044F61050A2F249
:10177000FF3242431514119801281FD0A5EB0B002E
:10178000401C5FEA000A4FF000064E4FDFF8389128
:10179000B046504615D5CAF1000413E01198012453
:1017A0004AA3012801D16FEA0B010298119AC0E9FE
:1017B0000031C0E9024206B0BDE8F09FCBF1000065
:1017C000DFE704460021404A491842EB0450CDE9C6
:1017D000001012E0E00707D032463B46404649463B
:1017E000FEF70DFE8046894632463B4610461946B6
:1017F000FEF705FE06460F466410002CEAD1DDE92F
:101800000401DDE90023BAF1000F06DAFEF7F7FD67
:1018100042464B46FEF7F3FD05E0FEF762FE424608
:101820004B46FEF75EFE04460E460022284BFEF7AE
:10183000DFFE03D84FF0FF30014607E00022254BC2
:1018400020463146FEF734FDFEF7BAFE102409E0CB
:10185000002C0ADB0A220023FEF7B2FC039B303285
:101860001A55641E50EA0102F2D1641C039AC4F1B5
:1018700011031444119A012A03D0012208430DD107
:101880000AE0084304D000204FF0110B119072E7DA
:10189000A3EB0B056D1E0DE05B4504DD4FF0000270
:1018A00005F1010504E003DA4FF00002A5F101059E
:1018B000002AECD002981199C0E90231C0E9004534
:1018C00079E70000000014400000F03F3000000005
:1018D0000000F0430000E03F2DE9FF4F95B09B462C
:1018E0008946064600250FE2252877D100242746A1
:1018F000F84A0121059400E0044316F8013F203B1B
:1019000001FA03F01042F7D130782A2811D06FF095
:101910002F033078A0F13002092A16D8059A44F036
:10192000020402EB820203EB42021044761C059093
:10193000EFE759F8042B0592002A03DA504244F4E9
:101940000054059044F00204761C30782E2816D1FD
:1019500016F8010F44F004042A280DD06FF02F026E
:101960003078A0F13003092B09D807EB870302EB8D
:101970004303C718761CF3E759F8047B761C3078CC
:101980006C280FD006DC4C2817D068280DD06A28A8
:1019900014D104E0742810D07A280FD10DE044F45B
:1019A00000140AE044F4801401E044F44014727816
:1019B000824202D104F58014761C761C30786628A9
:1019C0000BD013DC582877D009DC002875D04528C7
:1019D000F6D04628F4D047281AD19DE118E06328B4
:1019E00035D0642879D0652812D195E1702873D05C
:1019F00008DC6728F1D069286FD06E280DD06F28D9
:101A000006D1B5E073282CD0752875D0782874D00D
:101A10005A46179990476D1C75E1C4F3025002288D
:101A200009D003280DD0D9F8001004280DD00D607E
:101A300009F1040967E1D9F80010EA17C1E9005279
:101A4000F6E7D9F800100D80F2E70D70F0E719F80D
:101A5000041B8DF8001000208DF80100EA460120DB
:101A600003E059F804AB4FF0FF3061074FF000017D
:101A700002D40DE008F101018846B9420FDA804531
:101A8000F8DB1AF808100029F4D108E008F1010188
:101A900088468142FADB1AF808100029F6D1059829
:101AA0005B46A0EB080721463846179A00F094FAE7
:101AB000284400EB080507E04DE029E10DE01AF8A5
:101AC000010B5A4617999047B8F10108F7D25B46C7
:101AD00021463846179A13E142E00A220092C4F3E5
:101AE00002524FF0000A022A08D059F804CB032A08
:101AF0004FEAEC710AD00DE029E02AE009F1070174
:101B000021F00702F2E802C1914609E00FFA8CFCCD
:101B10004FEAEC71042A03D14FFA8CFC4FEAEC71C6
:101B2000002907DA0A460021DCF1000C61EB020112
:101B30002D2202E0220504D52B228DF8042001225B
:101B400003E0E20701D02022F7E7904659E00A219E
:101B500002E010220DE010214FF0000A00910BE08E
:101B600010224FF0000A44F004040827009203E01A
:101B700008224FF0000A0092C4F30252022A05D054
:101B800059F804CB0021032A08D009E009F1070124
:101B900021F00702F2E802C1914605E01FFA8CFC31
:101BA000042A01D10CF0FF0C4FF00008220728D5C1
:101BB000702806D0009B83F0100353EA0A0305D077
:101BC0000EE040228DF80420012208E05CEA0102C8
:101BD00006D030228DF804208DF8050002229046B0
:101BE000009B83F0080353EA0A030AD15CEA01026E
:101BF00001D1620705D530228DF804204FF001088D
:101C00007F1E582804D034A003900EA802900DE047
:101C100036A0F9E753466046009AFEF7D1FA8446AB
:101C20000398825C0298401E029002705CEA0100F8
:101C3000F0D1029806A9081A00F1200A600702D51F
:101C400024F4803400E00127574502DDA7EB0A00A9
:101C500000E0002000EB0A01009005984144401A82
:101C60000590E00306D45B462146179A059800F0DC
:101C7000B3F90544002706E001A85A46C05D17994C
:101C800090476D1C7F1C4745F6DBE0030CD55B4697
:101C90002146179A059800F09FF9054404E030208A
:101CA0005A46179990476D1C0099481E00900029CC
:101CB000F5DC08E0029802995A460078491C029126
:101CC000179990476D1CBAF10001AAF1010AF1DCE5
:101CD00065E10000092801003031323334353637F0
:101CE0003839616263646566000000003031323368
:101CF0003435363738394142434445460000000008
:101D000000F058F90544761C307800287FF4ECADDB
:101D100019B02846BDE8F08F620700D4062709F104
:101D2000070222F0070CFCE80223E14603F000481A
:101D30005FEA080C02D00FF2702C0DE05FEA045C41
:101D400002D50FF2682C07E05FEAC47C02D00FF2E4
:101D5000602C01E0AFF2700C4FF0FF3823F000432D
:101D6000CDF850C065280CD006DC452809D046289F
:101D70001DD047283DD13DE0662818D067287ED188
:101D800038E00021112F01DB112000E0781CCDE9A3
:101D9000000106A90EA8FFF7DDFCDDE90F010E9A90
:101DA00003910021009207F1010A04914DE04FF0E8
:101DB00000400097CDE9011006A90EA8FFF7CAFC64
:101DC000DDE90F0203920E9B11990022DDF80CA0B1
:101DD0000093049211B9791C00EB010AB7EB0A00D9
:101DE00004D4C0F1FF3007F1010A0490AAEB070008
:101DF000019044E0012F00DA01270021112F01DDBD
:101E0000112000E03846CDE9000106A90EA8FFF731
:101E1000A1FCDDE90F010E9A0391002104910092CB
:101E2000BA4621070CD40399514500DA8A46BAF123
:101E3000010F05DD009AAAF10101515C302908D09B
:101E4000B84202DA10F1040F06DA0121CDE90110DF
:101E500015E0AAF10101E9E7002805DC0499014435
:101E60000491AAEB000102E0411C514500DD8A46C5
:101E70000499401A401C01904FF000400290200746
:101E800004D40198504501DBCDF8048000208DF882
:101E90004F0002980DF14F07B0F1004F25D02B20D5
:101EA0000E9002984FF0020800280CDA404202908F
:101EB0002D200E9007E00A210298FEF7C4F9303178
:101EC000029007F8011DB8F10001A8F10108F2DC49
:101ED00002980028EFD1791E0E980870307800F033
:101EE000200040F0450007F8020D12A8C01B00F1C9
:101EF00007081498007800B1012000EB0A0101984E
:101F000001EBE07105984144401A401E0590E00342
:101F100006D45B462146179A059800F05DF8054403
:101F20001498007818B15A46179990476D1CE00331
:101F300024D55B462146179A059800F04DF80544D4
:101F40001CE00498002807DBDDE90301884203DD7B
:101F50000098405C179901E0179930205A46904745
:101F6000049805F10105401C04900198401E019061
:101F700004D12E205A46179990476D1CBAF10001E2
:101F8000AAF1010ADDDC05E017F8010B5A461799A2
:101F900090476D1CB8F10001A8F10108F4DC5B4624
:101FA0002146179A0598ABE62D0000002B00000093
:101FB000200000002DE9F041044600251E4617468A
:101FC000880404D405E039462020B0476D1C641E07
:101FD000F9D52846BDE8F0812DE9F04104460025F9
:101FE0001E469046C80301D5302700E0202788040C
:101FF00004D505E041463846B0476D1C641EF9D54E
:102000002846BDE8F0810A68531C0B6010707047C9
:1020100008B5FEF793FCFFF7FDF83348002401688C
:1020200041F001010160016801F0010100910168C6
:1020300041F00201016000682C4900F002000090AC
:102040002B484FF416550C260160C0E90154C460BA
:10205000C0E904468461C461FFF718F824482549A3
:1020600040300160C0E90154C460C0E904468461A5
:10207000C461FFF70BF801221F491D48FFF798F8CC
:102080001D491B480122491C4030FFF791F81BA055
:1020900000F05EF840F6B8342046FEF757FB19A072
:1020A00000F056F82046FEF751FB19A000F050F85A
:1020B0002046FEF74BFB19A000F04AF82046FEF739
:1020C00045FB19A000F044F82046FEF73FFB1CA09A
:1020D00000F03EF82046FEF739FB1BA000F038F870
:1020E0002046FEF733FBFEE7303802400044004054
:1020F00014000020004800400000002041540D0A58
:102100000000000041542B43474154543F0D0A0046
:1021100041542B4950523F0D0A00000041542B43BB
:102120004D47463D310D0A0041542B434D47533D29
:10213000383830303637343537350D0A0000000076
:1021400050616E6B616A0000007831410000000050
:102150000FB410B5C0B043AA68464299FFF7C8FA59
:102160006846074B05E019680C682406FCD54A60F0
:10217000401C0278002AF6D140B010BC5DF814FB78
:1021800054000020000000000000000001020304D1
:10219000060708090000000001020304BC21000832
:1021A000000000201400000034170008D0210008AF
:1021B0001400002084040000441700080000000000
:1021C0000100000010000000000000000024F400E6
:040000050800018965
:00000001FF
